:02000000422894
:100008007E14803120007F08F100F20123001908D6
:10001800F0007008F2007208F83A031D2028013039
:10002800F0007008F90718307902031C2028013005
:10003800F0007008F800F9017208FA3A031D2D283B
:100048000130F0007008F700F6011730F000700872
:10005800F9007208FB3A031D39280130F0007008D6
:10006800F7001730F0007008F9007208FC3A03191D
:10007800F70171082000FF007E1009004328F601EF
:10008800F701F801F9017E1020004A28210019081B
:10009800873970389900220091139D1723001D1687
:1000A8001E129D179F111E110F309B0021009116E3
:1000B8000B178B1723008C0121000C108C100C11CE
:1000C8000C1622008C017708031967287808031991
:1000D8006728F608031D722807307F2800302000A3
:1000E8008C190130FF3AF3000130F335FF3E031D50
:1000F80079287335023822008C006830F400E43027
:10010800F300F30B8528F40B8528000022000C0867
:1001180003398C000430F500A830F4000D30F300EA
:10012800F30B9428F40B9428F50B94280032220042
:100138008C010130F3007308F607031020000C1A35
:1001480003140030093D023EF3000030031801306B
:10015800F4007408803AF50080307502031DB62853
:0C01680076087302031CF601F8016728FA
:020000040001F9
:04000E00A4C9FFDDA5
:00000001FF
