:02000000422894
:100008007E14803120007F08F100F20123001908D6
:10001800F0007008F2007208F83A031D2028013039
:10002800F0007008F9077908173A031D20280130F5
:10003800F0007008F800F9017208FA3A031D2D283B
:100048000130F0007008F700F6011630F000700873
:10005800F9007208FB3A031D39280130F0007008D6
:10006800F7001630F0007008F9007208FC3A03191E
:10007800F70171082000FF007E1009004328F601EF
:10008800F701F801F9017E1020004A28210019081B
:10009800873970389900220091139D1723001D1687
:1000A8001E129D179F111E110F309B0021009116E3
:1000B8000B178B1723008C0121000C108C100C16C9
:1000C80022008C0177080319662878080319662826
:1000D800F608031D712801307228023022008C00B6
:1000E8000530F5000F30F400F430F300F30B7A28F4
:1000F800F40B7A28F50B7A2822008C010130F300E2
:100108007308F607031020000C1A03140030093D89
:10011800033EF300003003180130F400760873063C
:0A01280074040319F601F8016628BB
:020000040001F9
:04000E00A4C9FFDDA5
:00000001FF
